:100000000C94FF030C9430040C9430040C943004D2
:100010000C9430040C9430040C9430040C94300490
:100020000C9430040C9430040C9430040C94300480
:100030000C9430040C9430040C9430040C94300470
:100040000C9430040C9430040C9430040C94300460
:100050000C9430040C9430040C9430040C94690D0E
:100060000C9430040C940B100C94D7100C943004A6
:100070000C9430040C9430040C9430040C94300430
:100080000C9430040C9430040C9430040C94300420
:100090000C943E100C9416110C9430040C94300403
:1000A0000C9430040C9430040C9430040C94300400
:1000B0000C9430040C9430040C9430040C943004F0
:1000C0000C9430040C9430040C9430040C94711093
:1000D0000C9455110C9430040C94A4100C949411AD
:1000E0000C943004830E860E790E7D0EBD0E8A0EA2
:1000F0008E0E940E980E9C0EA20EA60EAA0EBD0E8B
:10010000B00EB40EB80E0C9445180C9499150C94BE
:10011000580F0C94511D0C9483190C942B140C94AF
:100120007D0E0C94A40F0C94940E0C942A140C9431
:100130001A140C94680F0C94FB130C94491E0C9425
:100140009C0E0C94AF0F0C94BD190C94C41E0C940F
:10015000790E0C94F9150C9470140C94B00E0C9448
:10016000351A0C944D190C941B190C944D0C0C94CD
:10017000F8150C94B80E0C943A190C94830E0C9448
:10018000B40E0C94A60E0C9426190C94051D0C9418
:10019000840F0C9460200C94AA0E0C94B4140C944C
:1001A000F7190C94860E0C94A20E0C9423150C9443
:1001B000FA130C9402140C9405150C94570F0C941C
:1001C000BD0E0C9451130C940E140C948E0E0C94C2
:1001D000980E0C945B120C948A0E0000090A020817
:1001E0000B0C0D07060304010000000000000000D6
:1001F00000000000000000000000000000000000FF
:1002000000000000000011100F00000000000000BE
:1002100000000000000000000000000000000000DE
:100220000102102020080810204010204080020108
:1002300002010804020101020408102040808040ED
:1002400020100804020180040201804020100804EC
:10025000020108040201010204081020408001028A
:100260000408102040800505050507050808080852
:10027000020202020A0A080804040404010101013E
:100280000101010103030303030303030407070739
:100290000C0C0C0C0C0C0C0C0202020206060606DE
:1002A000060606060B0B0B0B0B0B0B0B00002000BE
:1002B0002300260029002C002F003200000100003E
:1002C00003010601090100002200250028002B007F
:1002D0002E003100340002010000050108010B016D
:1002E00000002100240027002A002D0030003300E8
:1002F00001010000040107010A0100000000003EA6
:100300005B4F5B3E3E6B4F6B3E1C3E7C3E1C183C85
:100310007E3C181C577D571C1C5E7F5E1C00183CE1
:100320001800FFE7C3E7FF0018241800FFE7DBE72A
:10033000FF30483A060E2629792926407F05050711
:10034000407F05253F5A3CE73C5A7F3E1C1C08086D
:100350001C1C3E7F14227F22145F5F005F5F060932
:100360007F017F006689956A606060606094A2FF8B
:10037000A29408047E040810207E201008082A1C7D
:1003800008081C2A08081E101010100C1E0C1E0C49
:1003900030383E3830060E3E0E06000000000000E9
:1003A000005F00000007000700147F147F14242A58
:1003B0007F2A12231308646236495620500008072A
:1003C0000300001C2241000041221C002A1C7F1C4B
:1003D0002A08083E0808008070300008080808084D
:1003E000000060600020100804023E5149453E00B4
:1003F000427F400072494949462141494D33181412
:10040000127F1027454545393C4A49493141211160
:1004100009073649494936464949291E0000140052
:100420000000403400000008142241141414141475
:10043000004122140802015909063E415D594E7CD3
:100440001211127C7F494949363E414141227F4188
:1004500041413E7F494949417F090909013E4141E6
:1004600051737F0808087F00417F41002040413FD1
:10047000017F081422417F404040407F021C027FE0
:100480007F0408107F3E4141413E7F090909063E35
:100490004151215E7F091929462649494932030104
:1004A0007F01033F4040403F1F2040201F3F403816
:1004B000403F631408146303047804036159494DF1
:1004C00043007F4141410204081020004141417F27
:1004D000040201020440404040400003070800209D
:1004E000545478407F28444438384444442838449D
:1004F00044287F385454541800087E090218A4A4D4
:100500009C787F0804047800447D40002040403DF2
:10051000007F1028440000417F40007C047804786C
:100520007C080404783844444438FC1824241818FF
:10053000242418FC7C08040408485454542404045B
:100540003F44243C4040207C1C2040201C3C403048
:10055000403C44281028444C9090907C4464544C77
:1005600044000836410000007700000041360800D2
:1005700002010204023C2623263C1EA1A161123A7C
:100580004040207A385454555921555579412254C8
:10059000547842215554784020545579400C1E52CD
:1005A0007212395555555939545454593955545472
:1005B000580000457C410002457D420001457C40D9
:1005C0007D1211127DF0282528F07C54554500201D
:1005D00054547C547C0A097F4932494949323A448F
:1005E00044443A324A4848303A4141217A3A4240FA
:1005F0002078009DA0A07D3D4242423D3D404040CC
:100600003D3C24FF2424487E4943662B2FFC2F2B9E
:10061000FF0929F620C0887E09032054547941003F
:1006200000447D413048484A32384040227A007ABE
:100630000A0A727D0D19317D2629292F282629299C
:10064000292630484D4020380808080808080808BE
:10065000382F10C8ACBA2F102834FA00007B0000E5
:1006600008142A142222142A14085500550055AAE9
:1006700055AA55AAFF55FF55FF000000FF001010B6
:1006800010FF00141414FF001010FF00FF1010F0F2
:1006900010F0141414FC001414F700FF0000FF0005
:1006A000FF1414F404FC141417101F10101F101F53
:1006B0001414141F00101010F0000000001F101080
:1006C00010101F10101010F010000000FF1010107C
:1006D000101010101010FF10000000FF140000FF99
:1006E00000FF00001F10170000FC04F41414171082
:1006F000171414F404F40000FF00F7141414141475
:100700001414F700F7141414171410101F101F14EA
:100710001414F4141010F010F000001F101F00004B
:10072000001F14000000FC140000F010F01010FF77
:1007300010FF141414FF141010101F00000000F01C
:1007400010FFFFFFFFFFF0F0F0F0F0FFFFFF0000F1
:10075000000000FFFF0F0F0F0F0F3844443844FC18
:100760004A4A4A347E02020606027E027E0263552F
:100770004941633844443C04407E201E2006027EEA
:10078000020299A5E7A5991C2A492A1C4C720172FC
:100790004C304A4D4D303048784830BC625A463D66
:1007A0003E494949007E0101017E2A2A2A2A2A441B
:1007B000445F444440514A444040444A5140000050
:1007C000FF0103E080FF000008086B6B083612365B
:1007D0002436060F090F060000181800000010103C
:1007E000003040FF0101001F01011E00191D1712FA
:1007F000003C3C3C3C00000000004D0C5B1211240E
:100800001FBECFEFD1E2DEBFCDBF00E00CBF12E0D4
:10081000A0E0B2E0E8E2F3E400E00BBF02C0079022
:100820000D92A237B107D9F725E0A2E7B2E001C0E7
:100830001D92A636B207E1F713E0CFEFD3E000E058
:1008400006C021970109802FFE010E945921CD3F4A
:10085000D10780E00807A9F70E94F10C0C9415213C
:100860000C940000AC014E575F4F6EE220E030E088
:10087000FC01E20FF31F60832F5F3F4F2D303105E6
:10088000B9F70D968417950789F70895AC014E576F
:100890005F4F20E030E0F901ED57FF4FE80FF91FFF
:1008A00010822F5F3F4F2D303105A9F70D96841729
:1008B000950779F721E0FC0120830895AC014E579C
:1008C0005F4F20E030E0F901EB5FFE4FE80FF91FCA
:1008D00010822F5F3F4F2D303105A9F70D968417F9
:1008E000950779F708956F927F928F929F92AF92BA
:1008F000BF92CF92DF92EF92FF920F931F93CF930D
:10090000DF9300D01F92CDB7DEB76C0122E8C20E94
:10091000D11CAC01A0E0B0E011E020E030E0BA0171
:10092000620F731FFB01ED57FF4FE081EE2329F0AB
:10093000FB01EB5FFE4F108311962F5F3F4F2D3071
:10094000310569F7435F5F4F4C155D0531F7AB2B00
:1009500009F488C08C019DE0B92EAA24A3949801C3
:1009600080E090E0F901E80FF91FDF01AB5FBE4FB7
:100970004C91442369F08C30910509F473C0A1585F
:10098000B1094C91411104C041814E3209F06AC055
:1009900001968D30910531F7235F3F4F2C153D05B2
:1009A000F9F6CE0103960E94260DCE0101960E9413
:1009B000260D3801812C912CEE24E394F12CF701C3
:1009C000EC5FFE4FE60DF71D8081882359F0108201
:1009D000B401CE0103960E94510DB701CE010196DC
:1009E0000E94510D8FEFE81AF80A2EE0E216F1048A
:1009F00031F78FEF881A980A2DE0620E711C8AE099
:100A000088169104C9F6CE0103960E942A0D811121
:100A100020C0CE0103960E94320D4C01CE010396F8
:100A20000E94380DCE0101960E94320D7C01CE014C
:100A300001960E94380DB89CF001B99CF00D11246C
:100A4000E00FF11FEE0EFF1EF701EB5FFE4FA082DD
:100A5000DACFCE0101960E94430DCE0103960E948B
:100A6000430D7DCF0F900F900F900F90DF91CF919E
:100A70001F910F91FF90EF90DF90CF90BF90AF90BC
:100A80009F908F907F906F900895CF92DF92EF921A
:100A9000FF920F931F93CF93DF936C010E94730417
:100AA000C0E0D0E07601EC0EFD1E00E010E0F701A2
:100AB000EB5FFE4F8081AE01B801882331F0F70172
:100AC00080818E3211F48AE202C0F70180810E9497
:100AD000AD0C0F5F1F4FFDE0EF0EF11C0A3011054A
:100AE00031F72196CD30D105E9F6C601DF91CF91DE
:100AF0001F910F91FF90EF90DF90CF900C945E04C8
:100B00006F927F928F929F92AF92BF92CF92DF921D
:100B1000EF92FF920F931F93CF93DF9300D01F921A
:100B2000CDB7DEB78C010E947304CE0103960E94FC
:100B3000260DCE0101960E94260D3801A12CB12C64
:100B40009EE2892E7301C12CD12CF701ED57FF4F86
:100B50008081882321F0D7019C9010828C92F7012C
:100B6000EB5FFE4F8081882351F0B501CE010396E3
:100B70000E94510DB601CE0101960E94510DBFEFAA
:100B8000CB1ADB0AEFEFEE1AFE0AFDE0CF16D10416
:100B9000E1F68FEFA81AB80AADE06A0E711CBAE050
:100BA000AB16B10479F6C8010E945E048DE0D82E20
:100BB000CE0103960E942A0D81111EC0CE0103961C
:100BC0000E94320D5C01CE0103960E94380DCE01C9
:100BD00001960E94320D7C01CE0101960E94380DD3
:100BE000DA9CF001DB9CF00D1124EE0EFF1EF801E3
:100BF000EE0DFF1D9082DCCFF801EE57FF4F81E034
:100C00008083CE0101960E94430DCE0103960E947F
:100C1000430D0F900F900F900F90DF91CF911F9188
:100C20000F91FF90EF90DF90CF90BF90AF909F908B
:100C30008F907F906F9008956A30710520F481E065
:100C40004D30510508F080E008952F923F924F9269
:100C50005F926F927F928F929F92AF92BF92CF924C
:100C6000DF92EF92FF920F931F93CF93DF93CDB755
:100C7000DEB729970FB6F894DEBF0FBECDBFFC01DB
:100C8000E557FE4F20813181232B09F4F3C08C01FD
:100C90002C013C0121E42D8321E0A12CB12C8757AC
:100CA0009E4F9F838E83180199E7291A9EEF390A78
:100CB0003DE0C12CD12CF301EC0DFD1DDF01AD5742
:100CC000BF4F8C918823A9F180818D83EE81FF81B4
:100CD00040815181F101808191817C01EA18FB08FA
:100CE000E40EF51E4601841A950A880E991EA70186
:100CF000B401C801288739870E941C0628853985D8
:100D0000882309F1389DF001399DF00D1124DF0190
:100D1000AE0DBF1DA00FB11F8C918E3251F0E00FB0
:100D2000F11FEE0EFF1EF701ED57FF4F8081882364
:100D300051F0FFEFCF1ADF0A8DE0C816D10409F099
:100D4000BACF80E002C081E020E09FEFA91AB90A83
:100D5000EAE0AE16B10431F0EDE06E0E711C8823AE
:100D600009F4A7CF222309F485C0CE0103960E947F
:100D7000260DCE0101960E94260DC12CD12C9EE29B
:100D8000B92EE12CF12CD201AE0DBF1DFD01ED57A6
:100D9000FF4F8081882361F0BC921082B601CE01A2
:100DA00003960E94510DB701CE0101960E94510D8C
:100DB000FFEFEF1AFF0A2DE0E216F10421F78FEFA3
:100DC000C81AD80A9DE0490E511CEAE0CE16D1049B
:100DD000C1F66801F9E7CF1AFEEFDF0A580127E7ED
:100DE000A21A2EEFB20A8DE0782E66246394CE010B
:100DF00003960E942A0D811135C0CE0103960E94F0
:100E0000320D4C01CE0103960E94380DCE010196A1
:100E10000E94320D7C01CE0101960E94380DF60130
:100E200020813181F50180819181E81AF90AE20E71
:100E3000F31E28193909820F931F7E9CF0017F9CB5
:100E4000F00D1124DF01A80FB91FA00FB11F2D81D4
:100E50002C93E00FF11F8E0F9F1FFC01ED57FF4FEA
:100E60006082C5CFCE0101960E94430DCE0103964C
:100E70000E94430D29960FB6F894DEBF0FBECDBF7A
:100E8000DF91CF911F910F91FF90EF90DF90CF9066
:100E9000BF90AF909F908F907F906F905F904F909A
:100EA0003F902F900895CF92DF92EF92FF92CF93D1
:100EB000DF93EC01FC01E357FE4F1182108265E6DF
:100EC00070E080E090E00E942D1327E0C22ED12C2C
:100ED000E12CF12CA70196010E943A21CE018F56F8
:100EE0009E4F0E94510DFE01EA56FE4F8FEF9FEF7D
:100EF0009183808333971082359681E0808365E605
:100F000070E080E090E00E942D13C557DE4FA701EE
:100F100096010E943A2179836883DF91CF91FF90F7
:100F2000EF90DF90CF900895EF92FF920F931F9371
:100F3000CF93DF93EC018C0105571E4FF8018081A0
:100F40009181019611F57E012FE6E21A2EEFF20A49
:100F5000C7010E94320DF80191838083C7010E946E
:100F6000380D65E670E080E090E00E942D1327E0E8
:100F700030E040E050E00E943A21C7010E94510D4C
:100F800081E0FE01E856FE4F8083F8018081918167
:100F9000FE01EC56FE4F918380830097A9F429E56A
:100FA000E355F1402083319620833C96208331968F
:100FB000208321E0EB58FF4F2083319620833C961D
:100FC0002083319620837BC081309105F1F420E5A8
:100FD0002DABFE01EE5BFF4F20833D9620833E97B5
:100FE000208321E0E958FF4F20833D9620833D96E2
:100FF00020833E97208325E030E0ED53FF4F31837F
:1010000020833296918380835AC082309105F9F40F
:1010100022E428A72DABFE01EE5BFF4F2083319722
:10102000208321E0E659FF4F20833D9620833D96A3
:1010300020833197208324E030E0ED53FF4F31834C
:10104000208321E030E032963183208352C0833008
:101050009105B9F48FE488A78DABFE01EE5BFF4FDD
:1010600080838FA3E759FF4F81E080833D96808383
:101070003D9680837B978083E352FF4F84E090E02E
:1010800052C084309105D9F423E42A8F2FA32CABCE
:10109000FE01EF5BFF4F2083E45AFF4F21E02083E6
:1010A0003D9620833D9620833D962083ED53FF4F50
:1010B00091838083C757DE4F198218823CC08530E8
:1010C0009105B9F427E42DABFE01EE5BFF4F2083C1
:1010D000319720833D962083E659FF4F21E02083FE
:1010E0003D962083319720833D962083EA54FF4F1D
:1010F0001AC086309105F9F4FE01EF5BFF4F22E53F
:1011000020833D962083319620833D962083E859A5
:10111000FF4F21E020833D962083319620833D962A
:101120002083E855FF4F91838083C757DE4F81E0CE
:1011300090E099838883DF91CF911F910F91FF9069
:10114000EF900895FC01B79688599F4F20812E3269
:1011500031F0DF01AD57BF4F2C91222331F03D9686
:10116000E817F90799F780E0089581E0089520E0F5
:1011700030E04EE2F901E60FF71FE80FF91F408358
:10118000235F3F4F22383105A9F71616170694F44E
:10119000FC01E60FF71F2AE030E0DF0111974C91C8
:1011A0004083215031093D9621153105B1F7615039
:1011B0007109EBCF0895CF92DF92EF92FF920F93D8
:1011C0001F93CF93DF938C01C0E0D0E07C0183E7D5
:1011D000E81A8EEFF80A6801E1E7CE1AEEEFDE0AB0
:1011E000F801EC0FFD1F2AE030E080E090E0DF0125
:1011F000AD57BF4F4C91411104C040814E3209F0B0
:101200000196215031093D962115310581F70A9744
:1012100099F4F701208131812F5F3F4F3183208383
:10122000F601808191818217930714F43183208322
:10123000BE01C8010E94B7082196CD30D10581F6C4
:10124000DF91CF911F910F91FF90EF90DF90CF90A2
:101250000895EF92FF920F931F93CF93DF937C013A
:1012600023E8E20EF11C20E030E0F70140E050E01E
:10127000C191CC23C9F16115710589F4EF012E9755
:10128000C881C11108C02115310509F43FC08F0183
:101290000159110910C021153105B9F125C061307E
:1012A000710591F4C485C1110BC02930310571F16C
:1012B0008F0107571109D801DC91DE32A9F026C051
:1012C0002930310589F421C06230710569F4C0818B
:1012D000C1110AC08F0103581109D801DC91DE3217
:1012E00019F00E94460412C04F5F5F4F4D30510508
:1012F00009F0BECF2F5F3F4FBDE0EB0EF11C2A304F
:10130000310509F0B2CFC1E001C0C0E08C2FDF9100
:10131000CF911F910F91FF90EF900895FF920F933F
:101320001F93CF93DF936115710561F59C012057E1
:101330003F4FBC016E5E7E4F11E0F9014CE050E082
:10134000A291AA2379F0EF01C059D1090881DF01E8
:10135000A358B109FC90F8820C93AA58BF4FCC91C6
:101360001C93C0834150510958F7235F3F4F261704
:10137000370719F7FC01E957FE4F208131812150D1
:10138000310931C06130710589F59C0122573F4F09
:10139000BC01645F7F4F11E0F9014CE050E0DF01D8
:1013A000AA58BF4FCC91CC2359F00081EF012D9763
:1013B000F880F0820883C057DF4F088118830C93B0
:1013C0004150510931974F3FAFEF5A0741F72D5028
:1013D00031092617370701F7FC01E957FE4F208135
:1013E00031812F5F3F4F3183208334C062307105DC
:1013F00089F520E030E06DE070E011E0FB01E21BD8
:10140000F30BE80FF91FA901481B590BEF01CE5749
:10141000DF4F0881DF011197002349F00081FC9024
:10142000F0820C93ED57FF4F008110830883FD017C
:10143000A40FB51FAB2B51F72D5031092E374FEFAD
:101440003407E1F6FC01E757FE4F80819181019658
:1014500091838083DF91CF911F910F91FF90089529
:10146000AF92BF92DF92EF92FF920F931F93CF93B1
:10147000DF938C017C015C0182E8A80EB11CDD24A5
:10148000D394CCE0D0E0DD2009F1F701EC0FFD1F93
:10149000DF01AD57BF4F8C918823C1F0CC30D1050F
:1014A00019F081818E3221F0C8010E9446040EC0DD
:1014B00062E070E0C8010E942909882339F062E0E7
:1014C00070E0C8010E948E09D12C02C02197D8F685
:1014D0008DE0E80EF11CEA14FB0499F6DF91CF9140
:1014E0001F910F91FF90EF90DF90BF90AF90089504
:1014F000CF93DF93EC01FC01E357FE4F8081918194
:101500003296208131812817390714F49183808322
:10151000CE010E943204CE010E944604CE010E94F8
:101520005307CE01DF91CF910C945E04BF92CF920E
:10153000DF92EF92FF920F931F93CF93DF93FC0103
:10154000ED56FE4F2081222329F0603709F013C1A8
:10155000108211C1EC01603719F481E08083E6C08C
:10156000653609F040C0AC0148565E4FFA018081F3
:10157000882309F4DBC0DE01AA56BE4F8D919C91F1
:1015800011979E012C563E4FF901208131812D93F8
:101590003C93FA0110828F3FFFEF9F0729F0FE0175
:1015A000E557FE4F91838083BE016E577F4F81E0E8
:1015B000FB0180834EE220E030E0CE01820F931FDA
:1015C000DC01AD57BF4F5C91552319F0FC014083FE
:1015D0001C922F5F3F4F2D30310579F72D96C6179E
:1015E000D70749F7C8C06136A1F56C01E12CF12C91
:1015F000BB24B3940DE010E060E070E0CE010E94E7
:1016000029098823B9F0C601800F911FFC01EE570C
:10161000FF4F2081222379F0E114F10461F0E059B9
:10162000F10980818E3239F460E070E0CE010E94D1
:101630008E0904C0B12C01501109F1F6FFEFEF1A29
:10164000FF0A2DE0C20ED11C8AE0E816F10491F6E3
:1016500038C06436C9F56C01E5E7CE0ED11C89E0CF
:10166000E82EF12CBB24B3940DE010E061E070E0B3
:10167000CE010E9429098823B1F0F601E00FF11F85
:10168000DF01AE57BF4F8C91882371F029E0E2163D
:10169000F10451F084858E3239F461E070E0CE01BE
:1016A0000E948E0904C0B12C01501109F9F681E0A5
:1016B000E81AF108EDE0CE1AD108FFEFEF16FF06A9
:1016C00099F6BB2099F157C0603259F4DF91CF9160
:1016D0001F910F91FF90EF90DF90CF90BF900C94EF
:1016E0008005613759F4DF91CF911F910F91FF90E1
:1016F000EF90DF90CF90BF900C942506633791F464
:1017000062E070E00E942909882381F0CE01DF9118
:10171000CF911F910F91FF90EF90DF90CF90BF90EE
:101720000C94300A623711F40E94780ACE010E94AC
:10173000300A0CE010E0CE010E94DB0801501109D4
:10174000D1F78E010E571F4FF8018081882329F0B1
:10175000CE010E949407F8011082CE010E94A208D7
:10176000882319F0CE010E94780AC557DE4F8FEF0B
:101770009FEF99838883DF91CF911F910F91FF9005
:10178000EF90DF90CF90BF9008950F931F930E942A
:10179000B30D6093720270937302809374029093FE
:1017A000750280910A020E942A0F90937D02809315
:1017B0007C02809108020E942A0F90937B02809302
:1017C0007A02809106020E942A0F909379028093F8
:1017D0007802809104020E942A0F909377028093EE
:1017E000760220917C0230917D02232B31F12091F1
:1017F0007A0230917B02232B11F1209178023091F3
:101800007902232BF1F0892BF1F00E94B30D0091A6
:101810007202109173022091740230917502DC0102
:10182000CB01801B910BA20BB30B8D329140A10514
:10183000B10508F4B6CF8EE607C081E705C081E6A2
:1018400003C084E601C080E21F910F91089589359D
:1018500079F0803581F0823489F08F3491F08334CF
:1018600099F08734A1F08235A9F080E090E00895E6
:1018700080EE9FEF08958FE098E708958FE190E064
:10188000089580E29DEF08958FEF97E0089580EE30
:1018900097E0089580E098EF08952FEF49E06AE01F
:1018A0008EE792E00C944E1ACF92DF92EF92FF9265
:1018B0000F931F93CF93DF930E940A0E40E855E2E7
:1018C00060E070E080E293E00E94D31140E050E0DD
:1018D000BA018EE792E00E940F1B60E070E08EE795
:1018E00092E00E9405158AE0C82E82E0D82E60E0C2
:1018F000F60180810E94BE0E98E0E92E92E0F92E5A
:1019000060E0F70180810E94BE0E06E012E060E018
:10191000F80180810E94BE0EC4E0D2E060E08881C0
:101920000E94BE0E61E0F60180810E94FA0E61E025
:10193000F70180810E94FA0E61E0F80180810E9427
:10194000FA0E61E08881DF91CF911F910F91FF9096
:10195000EF90DF90CF900C94FA0EBF92CF92DF926F
:10196000EF92FF920F931F93CF93DF93B82E88E1EE
:10197000869F6001879FD00C11244D505109849F90
:10198000E001859FD00D1124C05CDE4F8B2D0E949D
:10199000270C7C0108E110E028E130E0AE01B6013F
:1019A0008EE792E00E94F7198AE2B81204C0EE2492
:1019B000EA94FE2C04C0E12CF12C08E110E028E1AF
:1019C00030E0AE01B6018EE792E00E949915DF91FA
:1019D000CF911F910F91FF90EF90DF90CF90BF902C
:1019E0000895CF93DF93CDB7DEB7C959D1400FB675
:1019F000F894DEBF0FBECDBF0E94540CCE018E56B0
:101A00009E4F0E94260DCE0101960E943204CE0107
:101A100001960E944604CE0101960E945307CE0112
:101A200001960E945E040E94C50B182F64E670E0C8
:101A300080E090E00E94E40D612FCE0101960E94AB
:101A4000960ACE0101960E944505EDCFFC01118258
:101A500010820895FC0181E020813181232B09F05F
:101A600080E00895DC01ED91FC91808191810895E1
:101A7000DC01ED91FC911197228133812D933C93F0
:101A8000CF010C94550FCF93DF93EC01888199819E
:101A9000892B21F0CE010E94380DF8CFDF91CF9134
:101AA00008950F931F93CF93DF93EC018B0184E094
:101AB00090E00E94530FFC0111830083888199817B
:101AC00093838283F983E883DF91CF911F910F91F4
:101AD00008951F920F920FB60F9211242F933F93E8
:101AE0008F939F93AF93BF938091B2029091B30273
:101AF000A091B402B091B5023091B10223E0230F5E
:101B00002D3720F40196A11DB11D05C026E8230F35
:101B10000296A11DB11D2093B1028093B202909351
:101B2000B302A093B402B093B5028091B602909133
:101B3000B702A091B802B091B9020196A11DB11DE2
:101B40008093B6029093B702A093B802B093B90203
:101B5000BF91AF919F918F913F912F910F900FBEA9
:101B60000F901F9018952FB7F8946091B202709162
:101B7000B3028091B4029091B5022FBF08953FB790
:101B8000F8948091B6029091B702A091B802B091FA
:101B9000B90226B5A89B05C02F3F19F00196A11DDB
:101BA000B11D3FBFBA2FA92F982F8827820F911DF3
:101BB000A11DB11DBC01CD0142E0660F771F881F3A
:101BC000991F4A95D1F70895CF92DF92EF92FF9235
:101BD000CF93DF936B017C010E94BF0DEB01C11419
:101BE000D104E104F10479F00E94BF0D6C1B7D0B60
:101BF000683E7340A0F381E0C81AD108E108F108FB
:101C0000C851DC4FECCFDF91CF91FF90EF90DF9088
:101C1000CF900895789484B5826084BD84B5816046
:101C200084BD85B5826085BD85B5816085BDEEE6E4
:101C3000F0E0808181608083E1E8F0E010828081C3
:101C400082608083808181608083E0E8F0E0808131
:101C500081608083E1EBF0E0808184608083E0EB51
:101C6000F0E0808181608083E1E9F0E08081826042
:101C70008083808181608083E0E9F0E08081816001
:101C80008083E1EAF0E080818260808380818160EE
:101C90008083E0EAF0E0808181608083E1E2F1E02E
:101CA000808182608083808181608083E0E2F1E0D6
:101CB000808181608083EAE7F0E0808184608083B6
:101CC0008081826080838081816080838081806860
:101CD00080831092C100089590E0FC013197E131BA
:101CE000F10508F04AC08827EE58FF4F8F4F0C943B
:101CF0005921809180008F7703C0809180008F7D73
:101D000080938000089584B58F7702C084B58F7D5D
:101D100084BD08958091B0008F7703C08091B0009A
:101D20008F7D8093B0000895809190008F7707C0D9
:101D3000809190008F7D03C080919000877F809379
:101D4000900008958091A0008F7707C08091A00037
:101D50008F7D03C08091A000877F8093A0000895AD
:101D6000809120018F7707C0809120018F7D03C073
:101D700080912001877F809320010895CF93DF9386
:101D800090E0FC01E05EFD4F2491FC01EA59FD4F1B
:101D90008491882361F190E0880F991FFC01E05243
:101DA000FD4FC591D491FC01EA53FD4FA591B4912B
:101DB000611109C09FB7F894888120958223888398
:101DC000EC912E230BC0623061F49FB7F8943881F8
:101DD000822F809583238883EC912E2B2C939FBF99
:101DE00006C08FB7F894E8812E2B28838FBFDF9130
:101DF000CF9108951F93CF93DF93282F30E0F901FF
:101E0000E652FE4F8491F901E05EFD4FD491F90155
:101E1000EA59FD4FC491CC23C9F0162F81110E94BD
:101E20006C0EEC2FF0E0EE0FFF1FEA53FD4FA59173
:101E3000B4918FB7F894111105C09C91ED2FE095E6
:101E4000E92302C0EC91ED2BEC938FBFDF91CF9192
:101E50001F910895CF93DF93282F30E0F901E652C8
:101E6000FE4F8491F901E05EFD4FD491F901EA59EA
:101E7000FD4FC491CC2391F081110E946C0EEC2F88
:101E8000F0E0EE0FFF1FE455FD4FA591B491EC91EA
:101E9000ED2381E090E021F480E002C080E090E05A
:101EA000DF91CF9108950C94331F0C94C81F0895AF
:101EB000FC0124853585F901E05CFF4F808191812B
:101EC000329620813181821B930B8F73992708955D
:101ED000DC011C96ED91FC911D97DF01A05CBF4FCA
:101EE0002D913C91119712968D919C9111972817E5
:101EF000390739F08D919C91E80FF91F808190E0AE
:101F000008958FEF9FEF0895FC01A485B585FD012D
:101F1000E05CFF4F208131813296808191812817CA
:101F2000390779F080819181A80FB91F8C912081A8
:101F300031812F5F3F4F2F7333273183208390E010
:101F400008958FEF9FEF0895FC0181A1882329F068
:101F5000A489B5898C9186FFFBCF11A208950F93B8
:101F60001F93CF93DF93FC01A685B7858D01005C9D
:101F70001F4FE8018881998101968F739927AD01E0
:101F80004E5B5F4FEA012881398182179307D1F3B5
:101F9000E80128813981A20FB31F6C93A685B7850C
:101FA000A05CBF4F11969C938E93A689B7892C9104
:101FB00081E090E0078C02C0880F991F0A94E2F735
:101FC000822B8C9381E081A30488F589E02D8081A8
:101FD0008064808381E090E0DF91CF911F910F9129
:101FE0000895FB01E05CFF4F208131812F5F3F4F5F
:101FF0002F733327DB01AE5BBF4F4D915C912417EC
:10200000350741F040815181DB01A40FB51F8C934E
:102010003183208308951F920F920FB60F921124DF
:102020000BB60F922F933F934F935F936F937F93D2
:102030008F939F93AF93BF93EF93FF938091C000D3
:1020400082FD07C08091C6006EE175E00E94F10F2D
:1020500002C08091C600FF91EF91BF91AF919F9117
:102060008F917F916F915F914F913F912F910F9041
:102070000BBE0F900FBE0F901F9018951F920F92DE
:102080000FB60F9211240BB60F922F933F934F93DD
:102090005F936F937F938F939F93AF93BF93EF93D0
:1020A000FF938091C80082FD07C08091CE0066E951
:1020B00074E00E94F10F02C08091CE00FF91EF9179
:1020C000BF91AF919F918F917F916F915F914F9150
:1020D0003F912F910F900BBE0F900FBE0F901F904E
:1020E00018951F920F920FB60F9211240BB60F92F4
:1020F0002F933F934F935F936F937F938F939F9310
:10210000AF93BF93EF93FF938091D00082FD07C000
:102110008091D6006EE074E00E94F10F02C08091C1
:10212000D600FF91EF91BF91AF919F918F917F91D9
:102130006F915F914F913F912F910F900BBE0F9038
:102140000FBE0F901F9018951F920F920FB60F920F
:1021500011240BB60F922F933F934F935F936F937E
:102160007F938F939F93AF93BF93EF93FF93809150
:10217000300182FD07C08091360166E873E00E945D
:10218000F10F02C080913601FF91EF91BF91AF91A5
:102190009F918F917F916F915F914F913F912F917F
:1021A0000F900BBE0F900FBE0F901F9018951F92AF
:1021B0000F920FB60F9211240BB60F922F933F93ED
:1021C0008F939F93EF93FF9320911A0530911B05F6
:1021D00080911C0590911D052817390731F48091D5
:1021E000C1008F7D8093C10014C0E0911C05F09167
:1021F0001D05E652FB4F208180911C0590911D0525
:1022000001968F73992790931D0580931C05209349
:10221000C600FF91EF919F918F913F912F910F9069
:102220000BBE0F900FBE0F901F9018951F920F922C
:102230000FB60F9211240BB60F922F933F938F93EB
:102240009F93EF93FF932091920430919304809198
:102250009404909195042817390731F48091C900AE
:102260008F7D8093C90014C0E0919404F09195048F
:10227000EE5AFB4F20818091940490919504019631
:102280008F73992790939504809394042093CE00A4
:10229000FF91EF919F918F913F912F910F900BBEE6
:1022A0000F900FBE0F901F9018951F920F920FB6B0
:1022B0000F9211240BB60F922F933F938F939F93FE
:1022C000EF93FF9320910A0430910B0480910C044A
:1022D00090910D042817390731F48091D1008F7D3A
:1022E0008093D10014C0E0910C04F0910D04E653EA
:1022F000FC4F208180910C0490910D0401968F7306
:10230000992790930D0480930C042093D600FF919D
:10231000EF919F918F913F912F910F900BBE0F9056
:102320000FBE0F901F9018951F920F920FB60F922D
:1023300011240BB60F922F933F938F939F93EF939C
:10234000FF932091820330918303809184039091C5
:1023500085032817390731F4809131018F7D8093EF
:10236000310114C0E0918403F0918503EE5BFC4FD2
:102370002081809184039091850301968F73992722
:10238000909385038093840320933601FF91EF910E
:102390009F918F913F912F910F900BBE0F900FBE89
:1023A0000F901F901895CF92DF92EF92FF920F93AC
:1023B0001F93CF93DF93EC016A017B014115514ECE
:1023C0006105710509F1EC89FD8981E090E008A0C3
:1023D00002C0880F991F0A94E2F7808360E079E0D9
:1023E0008DE390E0A70196010E94182189019A01CE
:1023F000015011092109310936952795179507953F
:10240000980101151041A8F0EC89FD89108260E85F
:1024100074E88EE190E0A70196010E941821DA018C
:10242000C9010197A109B109B695A7959795879517
:102430009C01E889F9893083EA89FB89208319A204
:10244000EE89FF89408181E090E09C010C8C02C004
:10245000220F331F0A94E2F7242B2083EE89FF8991
:1024600040819C010D8C02C0220F331F0A94E2F7B9
:10247000242B2083EE89FF8940819C010E8C02C0B1
:10248000220F331F0A94E2F7242B2083EE89FF8961
:1024900020810F8C02C0880F991F0A94E2F7809563
:1024A00082238083DF91CF911F910F91FF90EF9056
:1024B000DF90CF900895CF92DF92EF92FF92E0E20B
:1024C000F3E01382128288EEC82E83E0D82EE12C2E
:1024D000F12CC482D582E682F78266E172E07183D4
:1024E00060838EE195E0958784878AED94E09787F5
:1024F000868785EC90E0918B808B84EC90E0938BC9
:10250000828B80EC90E0958B848B81EC90E0978BB4
:10251000868B82EC90E0918F808F86EC90E0938F99
:10252000828F44E0448F33E0358F27E0268F95E09B
:10253000978F81E080A3EEEFF2E013821282C482D3
:10254000D582E682F78271836083A6E9B4E0B5871D
:10255000A487A2E5B4E0B787A687ADECB0E0B18B65
:10256000A08BACECB0E0B38BA28BA8ECB0E0B58B49
:10257000A48BA9ECB0E0B78BA68BAAECB0E0B18F2E
:10258000A08FAEECB0E0B38FA28F448F358F268F33
:10259000978F80A3ECEDF2E013821282C482D58281
:1025A000E682F78271836083AEE0B4E0B587A487EA
:1025B000AAECB3E0B787A687A5EDB0E0B18BA08BFE
:1025C000A4EDB0E0B38BA28BA0EDB0E0B58BA48BF3
:1025D000A1EDB0E0B78BA68BA2EDB0E0B18FA08FDC
:1025E000A6EDB0E0B38FA28F448F358F268F978FE3
:1025F00080A3EAEBF2E013821282C482D582E682E3
:10260000F7827183608366E873E07587648762E4AC
:1026100073E07787668765E371E0718B608B64E3B5
:1026200071E0738B628B60E371E0758B648B61E3A7
:1026300071E0778B668B62E371E0718F608F66E388
:1026400071E0738F628F448F358F268F978F80A3B1
:10265000FF90EF90DF90CF900895CF93DF9300D05D
:102660001F92CDB7DEB7611571058105910579F02F
:102670009B01AC0169833A834B835C830E940821F0
:1026800029813A814B815C810E943A2103C060E03C
:1026900070E0CB010F900F900F900F90DF91CF91D2
:1026A00008952F923F924F925F926F927F928F92F6
:1026B0009F92AF92BF92CF92DF92EF92FF920F93D1
:1026C0001F93CF93DF9300D0CDB7DEB74C017B8350
:1026D0006A836A01590117019801241B350B37FFE2
:1026E00003C0319521953109C5014A815B81841B65
:1026F000950B97FF03C091958195910951E05983FE
:102700008217930714F019820BC09A2D8B2D580154
:10271000092F182F9A818B81DB82CA82C92ED82E6D
:102720008A819B81A816B9065CF49C2D8D2D6801C9
:10273000092F182F9A818B81BB82AA82A92EB82ECD
:102740002501AA81BB814A1A5B0A38016C187D08F1
:1027500077FE03C0719461947108720157FE03C043
:10276000BFEFEB1AFB0AF594E794C016D1061CF0F4
:102770000FEF1FEF1FC001E010E01CC0D401ED916E
:10278000FC91B9810084F185E02D9101BB23C1F05A
:102790004A815B81B601C4011995E618F708F7FE76
:1027A00004C0C00ED11EE40CF51CEA81FB813196F9
:1027B000FB83EA834A815B81A416B506FCF604C05C
:1027C000A6016A817B81E7CF0F900F900F90DF9178
:1027D000CF911F910F91FF90EF90DF90CF90BF901E
:1027E000AF909F908F907F906F905F904F903F90B1
:1027F0002F9008950895DC01ED91FC910480F581FE
:10280000E02D19940F931F93DC01ED91FC91008C46
:10281000F18DE02D19951F910F9108950F931F933E
:10282000DC01ED91FC91028CF38DE02D19951F9147
:102830000F910895EF92FF920F931F93DC01ED919A
:10284000FC91048CF58DE02D19951F910F91FF904F
:10285000EF9008950895AF92BF92CF92DF92EF92DA
:10286000FF920F931F93CF93DF9300D01F92CDB7AA
:10287000DEB75C016901DC01ED91FC910680F78116
:10288000E02D4B835C8369837A831995D501ED91A3
:10289000FC914B815C81C40ED51EB1E0CB1AD108EE
:1028A0000088F189E02D7801860169817A819B0198
:1028B000C5011995D501ED91FC910288F389E02DB0
:1028C000C5010F900F900F900F90DF91CF911F9146
:1028D0000F91FF90EF90DF90CF90BF90AF90199441
:1028E000AF92BF92CF92DF92EF92FF920F931F931E
:1028F000CF93DF9300D01F92CDB7DEB75C016901A3
:10290000DC01ED91FC910680F781E02D4B835C8327
:1029100069837A831995D501ED91FC9169817A815A
:102920009B012C0D3D1D215031090088F189E02DBE
:1029300078014B815C818A01C5011995D501ED9122
:10294000FC910288F389E02DC5010F900F900F9044
:102950000F90DF91CF911F910F91FF90EF90DF903B
:10296000CF90BF90AF9019944F925F926F927F92E9
:102970008F929F92AF92BF92CF92DF92EF92FF928F
:102980000F931F93CF93DF931F921F92CDB7DEB7A4
:102990006C015A0139014801DC01ED91FC9106807E
:1029A000F781E02D69837A8319956981462E7A81B2
:1029B000572E640C751CD601ED91FC9146145704FA
:1029C0006CF40484F585E02D87019401A501B20122
:1029D000C6011995BFEF4B1A5B0AEDCF0288F38948
:1029E000E02DC6010F900F90DF91CF911F910F91B5
:1029F000FF90EF90DF90CF90BF90AF909F908F901F
:102A00007F906F905F904F901994EF92FF920F9389
:102A10001F93DC01ED91FC9111971A960D911C9179
:102A20001B9718962D913C911997048CF58DE02DEC
:102A30007B0140E050E060E070E019951F910F913C
:102A4000FF90EF900895CF92DF92EF92FF920F9355
:102A50001F93CF93DF9300D000D0CDB7DEB76C01CA
:102A6000DC01ED91FC916217730789F404171507D7
:102A70002CF4942F852FA801092F182F041B150B58
:102A800098012F5F3F4F008CF18DE02D12C0401751
:102A9000510709F5261737072CF4962F872FB90110
:102AA000292F382F261B370B2F5F3F4F028CF38DBA
:102AB000E02D8701C601199526960FB6F894DEBF62
:102AC0000FBECDBFDF91CF911F910F91FF90EF907F
:102AD000DF90CF9008950680F781E02D2D833E830F
:102AE0004B835C8369837A831995D601ED91FC91C0
:102AF0000088F189E02D2D813E814B815C816981C7
:102B00007A81C6011995D601ED91FC910288F3896D
:102B1000E02DC60126960FB6F894DEBF0FBECDBFDE
:102B2000DF91CF911F910F91FF90EF90DF90CF90A9
:102B300019946F927F928F929F92AF92BF92CF9291
:102B4000DF92EF92FF920F931F93CF93DF93EC01ED
:102B50004B015A0169013801E881F9810680F7814A
:102B6000E02D1995E881F9810684F785E02D87012C
:102B70009601A501B401CE011995E881F981A5015D
:102B8000460D571D415051090684F785E02D9601E9
:102B9000B401CE011995E881F9810484F585E02D11
:102BA0009301A501B401CE011995E881F981C80C02
:102BB000D91CB601615071090484F585E02D93019B
:102BC000A501CE011995E881F9810288F389E02DEC
:102BD000CE01DF91CF911F910F91FF90EF90DF9089
:102BE000CF90BF90AF909F908F907F906F901994EF
:102BF0000895FC016370658B8481958126813781FE
:102C0000613039F0633029F09187808733872287DC
:102C1000089531872087938782870895FC01138266
:102C2000128286E292E09183808375836483578366
:102C300046837187608753874287158A1586148675
:102C40001786168681E0848B2FEF3FEF338B228B24
:102C5000318B208B868B178A118E108E08952F92C0
:102C60003F924F925F926F927F928F929F92AF921C
:102C7000BF92CF92DF92EF92FF920F931F93CF9369
:102C8000DF93CDB7DEB76C970FB6F894DEBF0FBEFB
:102C9000CDBF9C8F8B8F5B011A011F830E83370181
:102CA000C982DC0158964D915C91599741155105A7
:102CB00009F0E5C018968D919C91199768177907CE
:102CC0000CF0CAC11A968D919C911B972816390653
:102CD0000CF0C2C18C2C912CFB0136E0C39EE00DA0
:102CE000F11D1124FB87EA871E161F060CF0B4C1E4
:102CF000C40133E0880F991F3A95E1F79D878C87CF
:102D0000820D931D181619060CF0A6C157968C91CA
:102D1000811103C0203B08F02F5FAB8DBC8DED917E
:102D2000FC9111970680F781E02DCD012A8F19952E
:102D30002A8DB5E02B9F90011124F5013596FF8770
:102D4000EE872501BB82AA82A9014A195B09598B2A
:102D5000488BC10108969B8B8A8BE889F989E40D21
:102D6000F51DE650FD4F949198873D822C826101BC
:102D7000A885A0FF13C0AB8DBC8DED91FC91B981EE
:102D8000B13031F40084F185E02D2E813F8116C0F1
:102D90000284F385E02DEE80FF801AC0EE81FF8172
:102DA0006E167F06F1F0AB8DBC8DED91FC91B98173
:102DB000B13051F40084F185E02D9301A601B201F8
:102DC0008B8D9C8D19950DC00284F385E02D7301C8
:102DD000840194014C815D816A817B818B8D9C8D06
:102DE0001995E885E695E8872C813D81280D391DE8
:102DF0003D832C833FEFC31AD30A4A895B89C416EB
:102E0000D50609F0B5CF8A819B81880D991D9B83DA
:102E10008A839FEF491A590AAE85BF854A165B0619
:102E200009F09BCFEE81FF816E167F0609F4F2C098
:102E3000EB8DFC8DA081B181F981F13079F4B50180
:102E40006B5F7F4F1C96ED91FC911D97830128E0ED
:102E500030E0A1018B8D9C8D1995DCC06A857B8546
:102E6000681979091A96ED91FC911B9773010C85ED
:102E70001D859401A1018B8D9C8D1995CBC0FA0104
:102E800034969491329765917491291BCB01B7E0E8
:102E90002B9F800D911D1124FA01259134913B8BBC
:102EA0002A8BFC01459154915B834A83FC01329645
:102EB000C490319654915C87329614913196D49097
:102EC0008981823058F0612E012E000C7708AD2DDB
:102ED0000D2C000CBB0BB987A88704C01986188677
:102EE000612C712CAB8DBC8DED91FC9111970680FE
:102EF000F781E02DCD011995B9818B2E912C689C1D
:102F0000C001699C900D789C900D1124FC01EA0D84
:102F1000FB1DF98BE88B1C82712C612CE12F110FAA
:102F2000FF0B95012E0F3F1F3B872A87AC0CB11C6E
:102F3000A5014E0F5F1F5F8B4E8BC1018D0D911D43
:102F4000D7FC9A95998F888F4C85641608F062C0DB
:102F5000862D90E048855985480F591F489D90015E
:102F6000499D300D589D300D1124D901A20DB31D7E
:102F7000BF87AE87AA84BB8448885988DC80BA851D
:102F8000DB1AE88DF98DE80FF91FFD8BEC8B8D2D89
:102F90008A0D2E893F89A216B306B9F1877061F4B4
:102FA0008A819B810196EA89FB89AA81BB81EA0F0C
:102FB000FB1F74909B838A8377FE20C0AB8DBC8DF2
:102FC000ED91FC91B981B13061F40084F185E02D7F
:102FD0002E813F814C895D89B5018B8D9C8D199522
:102FE0000DC00284F385E02DEE80FF808401940102
:102FF0004E855F85B2018B8D9C8D1995770C480CA1
:10300000591CEFEFAE1ABE0AC2CF3C813C0D3C8387
:1030100063949ACFAB8DBC8DED91FC911197028892
:10302000F389E02DCD016C960FB6F894DEBF0FBE8C
:10303000CDBFDF91CF911F910F91FF90EF90DF9067
:10304000CF90BF90AF909F908F907F906F905F9048
:103050004F903F902F9019946C960FB6F894DEBF66
:103060000FBECDBFDF91CF911F910F91FF90EF90D9
:10307000DF90CF90BF90AF909F908F907F906F9098
:103080005F904F903F902F900895AF92BF92CF9254
:10309000EF92FF920F931F93CF93DF93EC01262FB4
:1030A000888D998D009709F040C06A3059F41D86CB
:1030B0001C862C898E859F8538E0239F800D911D6D
:1030C000112441C06D3009F4AAC08E898823C1F053
:1030D0003C898C859D8546E0349F800D911D11248F
:1030E00048855985481759075CF41D861C868E85CE
:1030F0009F8548E0349F800D911D11249F878E8706
:10310000EA88FB88088919894E855F856C857D85ED
:10311000CC88CE010E942F162C898C859D8536E0A7
:10312000239F800D911D112442C06A3079F41D86C1
:103130001C862C89FC013696E4918E859F852E9FF6
:10314000800D911D11249F878E8769C06D3009F411
:1031500066C0FC0134963491631708F460C0319660
:10316000E491E61708F45BC0FC013296A590B49098
:10317000462F50E0431B510937E0349FB001359F83
:10318000700D1124A60EB71EF501329634913196BA
:10319000E491332311F0E1110DC0F5013496E4916F
:1031A0002C898C859D85E29F800D911D11249D8722
:1031B0008C8735C0F501359644915E89552311F110
:1031C0006C89E32FF0E0E40FF11D47FDFA956E9F47
:1031D000D0016F9FB00D11244C855D854A0F5B1F98
:1031E000E885F985E417F5076CF41D861C86FC015B
:1031F0003696E4918E859F856E9F800D911D1124DA
:103200009F878E87EA88FB88088919894E855F85A4
:103210006C857D85CC88CE010E942F16BECF81E0C3
:1032200090E0DF91CF911F910F91FF90EF90CF90A1
:10323000BF90AF900895DC019C96ED91FC919D9715
:103240009081D1968C91892B80830895EF92FF9283
:103250000F931F93DC01ED91FC910284F385E02D27
:103260007801890121E030E019951F910F91FF90BD
:10327000EF900895EF92FF920F931F93DC01ED9171
:10328000FC910284F385E02D780101E010E01995AE
:103290001F910F91FF90EF9008950F931F93CF937D
:1032A000DF9300D000D0CDB7DEB78C01DC01ED910B
:1032B000FC910680F781E02D2D833E834B835C8358
:1032C00069837A831995D801ED91FC910084F18589
:1032D000E02D2D813E814B815C8169817A81C8011D
:1032E0001995D801ED91FC910288F389E02DC80170
:1032F00026960FB6F894DEBF0FBECDBFDF91CF91FB
:103300001F910F911994EF92FF920F931F93CF93F8
:10331000DF9300D000D0CDB7DEB77C01DC01ED91AA
:10332000FC910680F781E02D2D833E834B835C83E7
:1033300069837A831995D701ED91FC910484F58511
:10334000E02D2D813E814B815C8169817A81C701AD
:103350001995D701ED91FC910288F389E02DC70101
:1033600026960FB6F894DEBF0FBECDBFDF91CF918A
:103370001F910F91FF90EF901994EF92FF920F938E
:103380001F93CF93DF9300D000D0CDB7DEB77C0181
:10339000DC01ED91FC910680F781E02D2D833E83C9
:1033A0004B835C8369837A831995D701ED91FC91F6
:1033B0000684F785E02D2D813E814B815C816981FA
:1033C0007A81C7011995D701ED91FC910288F389A3
:1033D000E02DC70126960FB6F894DEBF0FBECDBF15
:1033E000DF91CF911F910F91FF90EF901994CF92A1
:1033F000DF92EF92FF920F931F93CF93DF9300D052
:1034000000D0CDB7DEB76C01DC01ED91FC910680F8
:10341000F781E02D2D833E834B835C8369837A8320
:103420001995D601ED91FC910284F385E02D2D8153
:103430003E814B815C8169817A81C6011995D601F3
:10344000ED91FC910288F389E02DC60126960FB616
:10345000F894DEBF0FBECDBFDF91CF911F910F91CA
:10346000FF90EF90DF90CF901994CF93DF93EC0112
:1034700089A187FF09C084E00E94AC2081E00E94FE
:103480009E2080E00E94A720ECA5FDA5908189A93F
:10349000809589238083DF91CF910895EF92FF92E9
:1034A0000F931F93CF93DF931F92CDB7DEB77C01AD
:1034B000062F142F40E451E060EF70E029830E9452
:1034C0000E168EE492E0D70111969C938E935E9631
:1034D0000C935E975F961C935F97298190962C932F
:1034E00090978FEF91968C93919792968C93929759
:1034F00093968C939397F701128E138E148E158EDC
:10350000602F000F770BFB01EA59FD4F8491E82FE4
:10351000F0E0EE0FFF1FEA53FD4F859194919D96C9
:103520009C938E939C97FB01E05EFD4FE491D196B6
:10353000EC93D197412F110F550BFA01EA59FD4F2A
:10354000E491F0E0EE0FFF1FEA53FD4F8591949157
:10355000F70193A782A7FA01E05EFD4FE491D296AE
:10356000EC93D29799961C921E929897D0961C92A3
:10357000D09795961C921E9294979E961C929E9719
:1035800097961C921E9296979F961C920F90DF9191
:10359000CF911F910F91FF90EF900895FC0181A1B1
:1035A00087FF05C06EBD0DB407FEFDCF089528E06E
:1035B00030E090E8A4A1B5A186A5492F462319F0D3
:1035C0004C91842B03C04C91809584238C93A0A5AF
:1035D000B1A54C9180A9809584238C93A0A5B1A519
:1035E0004C9180A9842B8C9396952150310911F729
:1035F0000895CF93DF93EC01EAA5FBA590818AA9FA
:10360000809589238083CE010E94CE1AEAA5FBA56E
:1036100090818AA9892B8083DF91CF910895CF93E0
:10362000DF93EC01411551056105710521F440E07E
:1036300052E16AE770E04A8F5B8F6C8F7D8F61E0AB
:103640008F8D0E94BE0E60E08F8D0E94FA0E61E0A9
:103650008E8D0E94BE0E61E08E8D0E94FA0E89A1B1
:1036600087FD16C061E08AA10E94BE0E60E08AA1BB
:103670000E94FA0E61E089A10E94BE0E61E089A15C
:103680000E94FA0E8BA187FD03C060E00E94BE0E6F
:1036900089A187FD0E94882088A187FD21C061E063
:1036A0000E94BE0E61E088A10E94FA0E64E670E0FE
:1036B00080E090E00E94E40D60E088A10E94FA0E94
:1036C00064E670E080E090E00E94E40D61E088A193
:1036D0000E94FA0E68EC70E080E090E00E94E40D39
:1036E000E881F9810680F781E02DCE0119956FEE12
:1036F000CE010E94F91A63E0CE010E94CE1A60E862
:10370000CE010E94CE1A62E0CE010E94CE1A6FEC6A
:10371000CE010E94F91A60E0CE010E94CE1A61EC3F
:10372000CE010E94CE1A60E3CE010E94CE1A6DEE49
:10373000CE010E94F91A64E6CE010E94CE1A63E01F
:10374000CE010E94CE1A62E1CE010E94CE1A61E83B
:10375000CE010E94CE1A68EECE010E94F91A65E8E9
:10376000CE010E94CE1A60E0CE010E94CE1A68E718
:10377000CE010E94CE1A6BECCE010E94F91A69E3C9
:10378000CE010E94CE1A6CE2CE010E94CE1A60E0F9
:10379000CE010E94CE1A64E3CE010E94CE1A62E0EE
:1037A000CE010E94CE1A67EFCE010E94F91A60E2A4
:1037B000CE010E94CE1A6AEECE010E94F91A60E094
:1037C000CE010E94CE1A60E0CE010E94CE1A60ECBB
:1037D000CE010E94F91A63E2CE010E94CE1A61EC7A
:1037E000CE010E94F91A60E1CE010E94CE1A65EC6A
:1037F000CE010E94F91A6EE3CE010E94CE1A68E251
:10380000CE010E94CE1A67ECCE010E94F91A66E83A
:10381000CE010E94CE1A66E3CE010E94F91A68E436
:10382000CE010E94CE1A67E3CE010E94F91A89A147
:1038300087FF09C01EBC0DB407FEFDCF1EBC0DB432
:1038400007FEFDCF08C060E0CE010E94CE1A60E006
:10385000CE010E94CE1A6AE3CE010E94F91A65E5F4
:10386000CE010E94CE1A61EBCE010E94F91A60E0EF
:10387000CE010E94CE1A68E1CE010E94CE1A66EBFC
:10388000CE010E94F91A68E0CE010E94CE1A62E8C9
:10389000CE010E94CE1A67E2CE010E94CE1A62EFDC
:1038A000CE010E94F91A60E0CE010E94CE1A66E2B3
:1038B000CE010E94F91A61E0CE010E94CE1A60EE9C
:1038C000CE010E94F91A6FE0CE010E94CE1A61E388
:1038D000CE010E94CE1A6BE2CE010E94CE1A6CE09D
:1038E000CE010E94CE1A6EE0CE010E94CE1A68E090
:1038F000CE010E94CE1A6EE4CE010E94CE1A61EF74
:10390000CE010E94CE1A67E3CE010E94CE1A67E074
:10391000CE010E94CE1A60E1CE010E94CE1A63E071
:10392000CE010E94CE1A6EE0CE010E94CE1A69E04E
:10393000CE010E94CE1A60E0CE010E94CE1A61EE46
:10394000CE010E94F91A60E0CE010E94CE1A6EE00C
:10395000CE010E94CE1A64E1CE010E94CE1A63E02D
:10396000CE010E94CE1A61E1CE010E94CE1A67E01C
:10397000CE010E94CE1A61E3CE010E94CE1A61EC04
:10398000CE010E94CE1A68E4CE010E94CE1A68E0F1
:10399000CE010E94CE1A6FE0CE010E94CE1A6CE0DA
:1039A000CE010E94CE1A61E3CE010E94CE1A66E3D8
:1039B000CE010E94CE1A6FE0CE010E94CE1A61E1C4
:1039C000CE010E94F91A68E770E080E090E00E9462
:1039D000E40D69E2CE010E94F91A68E770E080E028
:1039E00090E00E94E40DE881F9810288F389E02DDE
:1039F000CE01199580EF90E09987888780E491E067
:103A00009B878A87DF91CF9108951F93CF93DF9390
:103A1000EC0163706D8B6230C1F0633001F1613095
:103A200051F080EF90E09987888780E491E09B8750
:103A30008A8718E41DC080E491E09987888780EF29
:103A400090E09B878A8718E213C080EF90E0998707
:103A5000888780E491E09B878A8718E809C080E422
:103A600091E09987888780EF90E09B878A8718EE9E
:103A7000E881F9810680F781E02DCE01199566E392
:103A8000CE010E94F91A612FCE010E94CE1AE88160
:103A9000F9810288F389E02DCE01DF91CF911F914A
:103AA00019940F931F93CF93DF931F92CDB7DEB777
:103AB0008C01DC01ED91FC910680F781E02D69839A
:103AC00019956981611102C060E201C061E2C8011B
:103AD0000E94F91AD801ED91FC910288F389E02D3A
:103AE000C8010F90DF91CF911F910F9119948F9280
:103AF0009F92AF92BF92CF92DF92EF92FF920F937D
:103B00001F93CF93DF93EC01490181E0881A91085C
:103B1000860E971EC401A0E0B0E04B01A12CB12C91
:103B2000540199248824882A992AAA2ABB2A680140
:103B300081E0C81AD108C40ED51EC601A0E0B0E0CD
:103B40006A01E12CF12C7601DD24CC24C82AD92A83
:103B5000EA2AFB2A6AE2CE010E94F91A29A16B2DFA
:103B600077278827992727FF18C06EBD0DB407FE59
:103B7000FDCFC501AA27BB278EBD0DB407FEFDCF23
:103B8000BB27AB2D9A2D892D8EBD0DB407FEFDCF21
:103B90008EBC0DB407FEFDCF14C0CE010E94CE1A1C
:103BA000B50188279927CE010E94CE1A99278B2D1F
:103BB0007A2D692DCE010E94CE1A682DCE010E9469
:103BC000CE1A6BE2CE010E94F91A29A16F2D772738
:103BD0008827992727FF18C06EBD0DB407FEFDCFBB
:103BE000C701AA27BB278EBD0DB407FEFDCFBB279B
:103BF000AF2D9E2D8D2D8EBD0DB407FEFDCFCEBCFD
:103C00000DB407FEFDCF14C0CE010E94CE1AB7013D
:103C100088279927CE010E94CE1A99278F2D7E2DB5
:103C20006D2DCE010E94CE1A6C2DCE010E94CE1AAF
:103C30006CE2CE01DF91CF911F910F91FF90EF9039
:103C4000DF90CF90BF90AF909F908F900C94F91A17
:103C50001F93CF93DF93262FFC0131A137FF09C0BB
:103C60007EBD0DB407FEFDCF2EBD0DB407FEFDCF0A
:103C70000CC0672F122FEC010E94CE1A612FCE01CB
:103C8000DF91CF911F910C94CE1ADF91CF911F91AC
:103C90000895EF92FF920F931F93CF93DF9377FDD9
:103CA00023C0DC011896ED91FC9119976E177F07E0
:103CB000DCF457FD19C01A96ED91FC911B974E1735
:103CC0005F0794F47901EC0101E010E021E030E0BD
:103CD0000E94771DB701CE01DF91CF911F910F9107
:103CE000FF90EF900C94281EDF91CF911F910F91C0
:103CF000FF90EF900895EF92FF921F93CF93DF9381
:103D000000D01F921F92CDB7DEB77C01162FFC01A9
:103D100081A187FF12C0211531054105510549F1E7
:103D20007EBD0DB407FEFDCF1EBD0DB407FEFDCF59
:103D30002150310941095109EECF211531054105C5
:103D40005105B9F0672FC70129833A834B835C8300
:103D50007D830E94CE1A612FC7010E94CE1A29814D
:103D60003A814B815C8121503109410951097D81A2
:103D7000E4CF0F900F900F900F900F90DF91CF91A5
:103D80001F91FF90EF9008958F929F92AF92BF92F4
:103D9000CF92DF92EF92FF920F931F93CF93DF9317
:103DA0005C01FB01E9014701DC0118962D913C9172
:103DB0001997621773070CF049C01A968D919C9160
:103DC0001B97481759070CF041C06B01CC0EDD1E44
:103DD000D60111977A01E00EF11EB7016150710909
:103DE000B7FD34C077FD32C0F7FF03C0E601E0E065
:103DF000F0E057FF03C0870140E050E0A217B3078F
:103E00001CF0E901CE1BDF0B681779071CF08C0151
:103E1000041B150B9E01D8010E9461216B017C01DE
:103E2000BF01C5010E94771DA7019601B401C5011C
:103E3000DF91CF911F910F91FF90EF90DF90CF9086
:103E4000BF90AF909F908F900C947B1EDF91CF918D
:103E50001F910F91FF90EF90DF90CF90BF90AF90A8
:103E60009F908F900895CF93DF938230910510F447
:103E700082E090E0E0916405F091650520E030E09B
:103E8000C0E0D0E0309711F14081518148175907C7
:103E9000C0F04817590761F482819381209719F087
:103EA0009B838A832BC0909365058093640526C00D
:103EB0002115310519F04217530718F49A01BE0174
:103EC000DF01EF010280F381E02DDCCF2115310508
:103ED00009F1281B390B2430310590F412968D918D
:103EE0009C9113976115710521F0FB0193838283E7
:103EF00004C09093650580936405FD01329644C02B
:103F0000FD01E20FF31F81939193225031092D930C
:103F10003C933AC02091620530916305232B41F414
:103F200020910E0230910F023093630520936205B9
:103F300020910C0230910D022115310541F42DB76D
:103F40003EB74091100250911102241B350BE091B5
:103F50006205F0916305E217F307A0F42E1B3F0BF7
:103F60002817390778F0AC014E5F5F4F24173507EB
:103F700048F04E0F5F1F5093630540936205819395
:103F8000919302C0E0E0F0E0CF01DF91CF9108957E
:103F90000F931F93CF93DF93009709F48CC0FC011C
:103FA0003297138212820091640510916505011504
:103FB000110581F420813181820F931F20916205C8
:103FC000309163052817390779F5F0936305E0937D
:103FD000620571C0D80140E050E0AE17BF0750F451
:103FE00012962D913C911397AD012115310509F1E0
:103FF000D901F3CF9D01DA0133832283608171817E
:10400000860F971F8217930769F4EC012881398185
:10401000260F371F2E5F3F4F318320838A819B817C
:1040200093838283452B29F4F0936505E09364051F
:1040300042C01396FC93EE931297ED01499159916A
:104040009E01240F351FE217F30771F480819181DF
:10405000840F951F029611969C938E938281938173
:1040600013969C938E931297E0E0F0E0D80112969D
:104070008D919C911397009719F0F8018C01F6CF60
:104080008D919C9198012E5F3F4F820F931F20913D
:104090006205309163052817390769F4309729F4D0
:1040A000109265051092640502C01382128210936B
:1040B000630500936205DF91CF911F910F910895E1
:1040C000CF92DF92EF92FF920F931F93CF93DF93E4
:1040D0006C01EB017B01E40EF51E00E010E0CE1553
:1040E000DF0561F06991D601ED91FC910190F081BD
:1040F000E02DC6011995080F191FF1CFC801DF91F6
:10410000CF911F910F91FF90EF90DF90CF90089586
:1041100061E085E30E94FA0E61E085E30E94BE0E35
:104120008CB580618CBD8CB580648CBD61E084E30E
:104130000E94BE0E61E083E30C94BE0E811103C0A9
:104140008CB5806202C08CB58F7D8CBD08959CB506
:10415000937F892B8CBD08959CB5282F23709C7F5D
:10416000922B9CBD2DB582FB992790F9822F8E7FD3
:10417000892B8DBD08958F929F92AF92BF92CF925F
:10418000DF92EF92FF92CF93DF93EC016881798108
:104190008A819B81611571058105910521F464E295
:1041A00079ED8BE597E02DE133EF41E050E00E949F
:1041B0003A2149015A019B01AC01A7EAB1E40E94EE
:1041C0007F216B017C01ACEEB4EFA50194010E944C
:1041D0008D21DC01CB018C0D9D1DAE1DBF1DB7FFD8
:1041E00003C00197A109B04888839983AA83BB8340
:1041F000BC01CD019F77DF91CF91FF90EF90DF90D1
:10420000CF90BF90AF909F908F9008950C94BB205B
:1042100080E092E00C94BB20609300027093010256
:1042200080930202909303020895F8940C949221D3
:10423000A1E21A2EAA1BBB1BFD010DC0AA1FBB1FAA
:10424000EE1FFF1FA217B307E407F50720F0A21B1C
:10425000B30BE40BF50B661F771F881F991F1A9489
:1042600069F760957095809590959B01AC01BD01B3
:10427000CF010895052E97FB1EF400940E94512152
:1042800057FD07D00E94182107FC03D04EF40C9470
:10429000512150954095309521953F4F4F4F5F4F9D
:1042A000089590958095709561957F4F8F4F9F4FA2
:1042B0000895EE0FFF1F881F8BBF0790F691E02D2A
:1042C00019940E946921332312F48A1B9B0B0C94CE
:1042D0007A21A29FB001B39FC001A39F700D811DE1
:1042E0001124911DB29F700D811D1124911D0895FF
:1042F0000E946921B7FF0895821B930B08950E94C5
:104300006921A59F900DB49F900DA49F800D911DD4
:1043100011240895B7FF0C947F210E947F21821BF6
:08432000930B0895F894FFCF00
:104328000100000008000D000C00020000006605F6
:10433800800000000000AF0F6020580F840F680F46
:10434800A40F0000000045186020570FFA13FB1354
:104358001A1402140E1451132A14F915F8152B14F3
:104368007014B4140515231599150000000045189C
:1043780060204D19351A491EC41E26193A195113C1
:104388001B19051D511D8319BD19F719051523158D
:02439800991575
:00000001FF
